{
  "_format": "hh-sol-artifact-1",
  "contractName": "IdentiFi",
  "sourceName": "contracts/identiFi.sol",
  "abi": [
    {
      "inputs": [
        {
          "internalType": "string",
          "name": "username",
          "type": "string"
        },
        {
          "components": [
            {
              "internalType": "string",
              "name": "firstName",
              "type": "string"
            },
            {
              "internalType": "string",
              "name": "lastName",
              "type": "string"
            },
            {
              "internalType": "string",
              "name": "username",
              "type": "string"
            },
            {
              "internalType": "string",
              "name": "email",
              "type": "string"
            },
            {
              "internalType": "string",
              "name": "homeAddress",
              "type": "string"
            },
            {
              "internalType": "string",
              "name": "phone",
              "type": "string"
            },
            {
              "internalType": "string",
              "name": "dateOfBirth",
              "type": "string"
            }
          ],
          "internalType": "struct IdentiFi.BasicInfo",
          "name": "basicInfo",
          "type": "tuple"
        },
        {
          "components": [
            {
              "internalType": "string",
              "name": "education",
              "type": "string"
            },
            {
              "internalType": "string",
              "name": "occupation",
              "type": "string"
            },
            {
              "internalType": "string",
              "name": "workExperience",
              "type": "string"
            },
            {
              "internalType": "string[]",
              "name": "skills",
              "type": "string[]"
            },
            {
              "internalType": "string",
              "name": "info",
              "type": "string"
            },
            {
              "internalType": "string",
              "name": "image",
              "type": "string"
            }
          ],
          "internalType": "struct IdentiFi.ProfessionalInfo",
          "name": "professionalInfo",
          "type": "tuple"
        },
        {
          "components": [
            {
              "internalType": "string",
              "name": "x",
              "type": "string"
            },
            {
              "internalType": "string",
              "name": "instagram",
              "type": "string"
            },
            {
              "internalType": "string",
              "name": "youtube",
              "type": "string"
            },
            {
              "internalType": "string",
              "name": "linkedin",
              "type": "string"
            }
          ],
          "internalType": "struct IdentiFi.SocialMedia",
          "name": "socialMedia",
          "type": "tuple"
        },
        {
          "components": [
            {
              "internalType": "bool",
              "name": "education",
              "type": "bool"
            },
            {
              "internalType": "bool",
              "name": "workExperience",
              "type": "bool"
            },
            {
              "internalType": "bool",
              "name": "phone",
              "type": "bool"
            },
            {
              "internalType": "bool",
              "name": "homeAddress",
              "type": "bool"
            },
            {
              "internalType": "bool",
              "name": "dateOfBirth",
              "type": "bool"
            }
          ],
          "internalType": "struct IdentiFi.Visibility",
          "name": "visibility",
          "type": "tuple"
        }
      ],
      "name": "createUser",
      "outputs": [],
      "stateMutability": "nonpayable",
      "type": "function"
    },
    {
      "inputs": [
        {
          "internalType": "string",
          "name": "username",
          "type": "string"
        },
        {
          "components": [
            {
              "internalType": "string",
              "name": "firstName",
              "type": "string"
            },
            {
              "internalType": "string",
              "name": "lastName",
              "type": "string"
            },
            {
              "internalType": "string",
              "name": "username",
              "type": "string"
            },
            {
              "internalType": "string",
              "name": "email",
              "type": "string"
            },
            {
              "internalType": "string",
              "name": "homeAddress",
              "type": "string"
            },
            {
              "internalType": "string",
              "name": "phone",
              "type": "string"
            },
            {
              "internalType": "string",
              "name": "dateOfBirth",
              "type": "string"
            }
          ],
          "internalType": "struct IdentiFi.BasicInfo",
          "name": "basicInfo",
          "type": "tuple"
        },
        {
          "components": [
            {
              "internalType": "string",
              "name": "education",
              "type": "string"
            },
            {
              "internalType": "string",
              "name": "occupation",
              "type": "string"
            },
            {
              "internalType": "string",
              "name": "workExperience",
              "type": "string"
            },
            {
              "internalType": "string[]",
              "name": "skills",
              "type": "string[]"
            },
            {
              "internalType": "string",
              "name": "info",
              "type": "string"
            },
            {
              "internalType": "string",
              "name": "image",
              "type": "string"
            }
          ],
          "internalType": "struct IdentiFi.ProfessionalInfo",
          "name": "professionalInfo",
          "type": "tuple"
        },
        {
          "components": [
            {
              "internalType": "string",
              "name": "x",
              "type": "string"
            },
            {
              "internalType": "string",
              "name": "instagram",
              "type": "string"
            },
            {
              "internalType": "string",
              "name": "youtube",
              "type": "string"
            },
            {
              "internalType": "string",
              "name": "linkedin",
              "type": "string"
            }
          ],
          "internalType": "struct IdentiFi.SocialMedia",
          "name": "socialMedia",
          "type": "tuple"
        },
        {
          "components": [
            {
              "internalType": "bool",
              "name": "education",
              "type": "bool"
            },
            {
              "internalType": "bool",
              "name": "workExperience",
              "type": "bool"
            },
            {
              "internalType": "bool",
              "name": "phone",
              "type": "bool"
            },
            {
              "internalType": "bool",
              "name": "homeAddress",
              "type": "bool"
            },
            {
              "internalType": "bool",
              "name": "dateOfBirth",
              "type": "bool"
            }
          ],
          "internalType": "struct IdentiFi.Visibility",
          "name": "visibility",
          "type": "tuple"
        }
      ],
      "name": "editUser",
      "outputs": [],
      "stateMutability": "nonpayable",
      "type": "function"
    },
    {
      "inputs": [
        {
          "internalType": "address",
          "name": "userAddress",
          "type": "address"
        }
      ],
      "name": "getUserByAddress",
      "outputs": [
        {
          "components": [
            {
              "internalType": "string",
              "name": "firstName",
              "type": "string"
            },
            {
              "internalType": "string",
              "name": "lastName",
              "type": "string"
            },
            {
              "internalType": "string",
              "name": "username",
              "type": "string"
            },
            {
              "internalType": "string",
              "name": "email",
              "type": "string"
            },
            {
              "internalType": "string",
              "name": "homeAddress",
              "type": "string"
            },
            {
              "internalType": "string",
              "name": "phone",
              "type": "string"
            },
            {
              "internalType": "string",
              "name": "dateOfBirth",
              "type": "string"
            }
          ],
          "internalType": "struct IdentiFi.BasicInfo",
          "name": "basicInfo",
          "type": "tuple"
        },
        {
          "components": [
            {
              "internalType": "string",
              "name": "education",
              "type": "string"
            },
            {
              "internalType": "string",
              "name": "occupation",
              "type": "string"
            },
            {
              "internalType": "string",
              "name": "workExperience",
              "type": "string"
            },
            {
              "internalType": "string[]",
              "name": "skills",
              "type": "string[]"
            },
            {
              "internalType": "string",
              "name": "info",
              "type": "string"
            },
            {
              "internalType": "string",
              "name": "image",
              "type": "string"
            }
          ],
          "internalType": "struct IdentiFi.ProfessionalInfo",
          "name": "professionalInfo",
          "type": "tuple"
        },
        {
          "components": [
            {
              "internalType": "string",
              "name": "x",
              "type": "string"
            },
            {
              "internalType": "string",
              "name": "instagram",
              "type": "string"
            },
            {
              "internalType": "string",
              "name": "youtube",
              "type": "string"
            },
            {
              "internalType": "string",
              "name": "linkedin",
              "type": "string"
            }
          ],
          "internalType": "struct IdentiFi.SocialMedia",
          "name": "socialMedia",
          "type": "tuple"
        },
        {
          "components": [
            {
              "internalType": "bool",
              "name": "education",
              "type": "bool"
            },
            {
              "internalType": "bool",
              "name": "workExperience",
              "type": "bool"
            },
            {
              "internalType": "bool",
              "name": "phone",
              "type": "bool"
            },
            {
              "internalType": "bool",
              "name": "homeAddress",
              "type": "bool"
            },
            {
              "internalType": "bool",
              "name": "dateOfBirth",
              "type": "bool"
            }
          ],
          "internalType": "struct IdentiFi.Visibility",
          "name": "visibility",
          "type": "tuple"
        }
      ],
      "stateMutability": "view",
      "type": "function"
    },
    {
      "inputs": [
        {
          "internalType": "address",
          "name": "userAddress",
          "type": "address"
        }
      ],
      "name": "getUserByUsername",
      "outputs": [
        {
          "internalType": "string",
          "name": "",
          "type": "string"
        }
      ],
      "stateMutability": "view",
      "type": "function"
    },
    {
      "inputs": [
        {
          "internalType": "string",
          "name": "username",
          "type": "string"
        }
      ],
      "name": "getUserbyUsername",
      "outputs": [
        {
          "components": [
            {
              "internalType": "string",
              "name": "firstName",
              "type": "string"
            },
            {
              "internalType": "string",
              "name": "lastName",
              "type": "string"
            },
            {
              "internalType": "string",
              "name": "username",
              "type": "string"
            },
            {
              "internalType": "string",
              "name": "email",
              "type": "string"
            },
            {
              "internalType": "string",
              "name": "homeAddress",
              "type": "string"
            },
            {
              "internalType": "string",
              "name": "phone",
              "type": "string"
            },
            {
              "internalType": "string",
              "name": "dateOfBirth",
              "type": "string"
            }
          ],
          "internalType": "struct IdentiFi.BasicInfo",
          "name": "basicInfo",
          "type": "tuple"
        },
        {
          "components": [
            {
              "internalType": "string",
              "name": "education",
              "type": "string"
            },
            {
              "internalType": "string",
              "name": "occupation",
              "type": "string"
            },
            {
              "internalType": "string",
              "name": "workExperience",
              "type": "string"
            },
            {
              "internalType": "string[]",
              "name": "skills",
              "type": "string[]"
            },
            {
              "internalType": "string",
              "name": "info",
              "type": "string"
            },
            {
              "internalType": "string",
              "name": "image",
              "type": "string"
            }
          ],
          "internalType": "struct IdentiFi.ProfessionalInfo",
          "name": "professionalInfo",
          "type": "tuple"
        },
        {
          "components": [
            {
              "internalType": "string",
              "name": "x",
              "type": "string"
            },
            {
              "internalType": "string",
              "name": "instagram",
              "type": "string"
            },
            {
              "internalType": "string",
              "name": "youtube",
              "type": "string"
            },
            {
              "internalType": "string",
              "name": "linkedin",
              "type": "string"
            }
          ],
          "internalType": "struct IdentiFi.SocialMedia",
          "name": "socialMedia",
          "type": "tuple"
        },
        {
          "components": [
            {
              "internalType": "bool",
              "name": "education",
              "type": "bool"
            },
            {
              "internalType": "bool",
              "name": "workExperience",
              "type": "bool"
            },
            {
              "internalType": "bool",
              "name": "phone",
              "type": "bool"
            },
            {
              "internalType": "bool",
              "name": "homeAddress",
              "type": "bool"
            },
            {
              "internalType": "bool",
              "name": "dateOfBirth",
              "type": "bool"
            }
          ],
          "internalType": "struct IdentiFi.Visibility",
          "name": "visibility",
          "type": "tuple"
        }
      ],
      "stateMutability": "view",
      "type": "function"
    },
    {
      "inputs": [
        {
          "internalType": "string",
          "name": "username",
          "type": "string"
        }
      ],
      "name": "getVisibility",
      "outputs": [
        {
          "components": [
            {
              "internalType": "bool",
              "name": "education",
              "type": "bool"
            },
            {
              "internalType": "bool",
              "name": "workExperience",
              "type": "bool"
            },
            {
              "internalType": "bool",
              "name": "phone",
              "type": "bool"
            },
            {
              "internalType": "bool",
              "name": "homeAddress",
              "type": "bool"
            },
            {
              "internalType": "bool",
              "name": "dateOfBirth",
              "type": "bool"
            }
          ],
          "internalType": "struct IdentiFi.Visibility",
          "name": "",
          "type": "tuple"
        }
      ],
      "stateMutability": "view",
      "type": "function"
    },
    {
      "inputs": [
        {
          "internalType": "string",
          "name": "username",
          "type": "string"
        },
        {
          "internalType": "bool",
          "name": "education",
          "type": "bool"
        },
        {
          "internalType": "bool",
          "name": "workExperience",
          "type": "bool"
        },
        {
          "internalType": "bool",
          "name": "phone",
          "type": "bool"
        },
        {
          "internalType": "bool",
          "name": "homeAddress",
          "type": "bool"
        },
        {
          "internalType": "bool",
          "name": "dateOfBirth",
          "type": "bool"
        }
      ],
      "name": "setVisibility",
      "outputs": [],
      "stateMutability": "nonpayable",
      "type": "function"
    }
  ],
  "bytecode": "0x6080604052348015600f57600080fd5b50612b0e8061001f6000396000f3fe608060405234801561001057600080fd5b506004361061007d5760003560e01c80635dfd30ed1161005b5780635dfd30ed1461011557806369c212f614610131578063a9fa890214610164578063d1577cac146101805761007d565b8063320ba8f7146100825780633f23fb03146100b2578063487254c6146100e5575b600080fd5b61009c60048036038101906100979190611a7c565b61019c565b6040516100a99190611b48565b60405180910390f35b6100cc60048036038101906100c79190611a7c565b6102cc565b6040516100dc9493929190611e8e565b60405180910390f35b6100ff60048036038101906100fa9190611f47565b610e35565b60405161010c9190611fbe565b60405180910390f35b61012f600480360381019061012a9190612530565b610f06565b005b61014b60048036038101906101469190611f47565b6111df565b60405161015b9493929190611e8e565b60405180910390f35b61017e60048036038101906101799190612530565b6112e4565b005b61019a6004803603810190610195919061261c565b611641565b005b6101a4611774565b6000826040516101b49190612701565b908152602001604051809103902060110160009054906101000a900460ff16610212576040517f08c379a000000000000000000000000000000000000000000000000000000000815260040161020990612764565b60405180910390fd5b6000826040516102229190612701565b90815260200160405180910390206013016040518060a00160405290816000820160009054906101000a900460ff161515151581526020016000820160019054906101000a900460ff161515151581526020016000820160029054906101000a900460ff161515151581526020016000820160039054906101000a900460ff161515151581526020016000820160049054906101000a900460ff1615151515815250509050919050565b6102d46117ad565b6102dc6117ea565b6102e4611820565b6102ec611774565b6000856040516102fc9190612701565b908152602001604051809103902060110160009054906101000a900460ff1661035a576040517f08c379a000000000000000000000000000000000000000000000000000000000815260040161035190612764565b60405180910390fd5b6000808660405161036b9190612701565b908152602001604051809103902090506040518060e00160405280826000018054610395906127b3565b80601f01602080910402602001604051908101604052809291908181526020018280546103c1906127b3565b801561040e5780601f106103e35761010080835404028352916020019161040e565b820191906000526020600020905b8154815290600101906020018083116103f157829003601f168201915b50505050508152602001826001018054610427906127b3565b80601f0160208091040260200160405190810160405280929190818152602001828054610453906127b3565b80156104a05780601f10610475576101008083540402835291602001916104a0565b820191906000526020600020905b81548152906001019060200180831161048357829003601f168201915b505050505081526020018260020180546104b9906127b3565b80601f01602080910402602001604051908101604052809291908181526020018280546104e5906127b3565b80156105325780601f1061050757610100808354040283529160200191610532565b820191906000526020600020905b81548152906001019060200180831161051557829003601f168201915b5050505050815260200182600301805461054b906127b3565b80601f0160208091040260200160405190810160405280929190818152602001828054610577906127b3565b80156105c45780601f10610599576101008083540402835291602001916105c4565b820191906000526020600020905b8154815290600101906020018083116105a757829003601f168201915b505050505081526020018260040180546105dd906127b3565b80601f0160208091040260200160405190810160405280929190818152602001828054610609906127b3565b80156106565780601f1061062b57610100808354040283529160200191610656565b820191906000526020600020905b81548152906001019060200180831161063957829003601f168201915b5050505050815260200182600801805461066f906127b3565b80601f016020809104026020016040519081016040528092919081815260200182805461069b906127b3565b80156106e85780601f106106bd576101008083540402835291602001916106e8565b820191906000526020600020905b8154815290600101906020018083116106cb57829003601f168201915b50505050508152602001826005018054610701906127b3565b80601f016020809104026020016040519081016040528092919081815260200182805461072d906127b3565b801561077a5780601f1061074f5761010080835404028352916020019161077a565b820191906000526020600020905b81548152906001019060200180831161075d57829003601f168201915b505050505081525094506040518060c0016040528082600601805461079e906127b3565b80601f01602080910402602001604051908101604052809291908181526020018280546107ca906127b3565b80156108175780601f106107ec57610100808354040283529160200191610817565b820191906000526020600020905b8154815290600101906020018083116107fa57829003601f168201915b50505050508152602001826007018054610830906127b3565b80601f016020809104026020016040519081016040528092919081815260200182805461085c906127b3565b80156108a95780601f1061087e576101008083540402835291602001916108a9565b820191906000526020600020905b81548152906001019060200180831161088c57829003601f168201915b505050505081526020018260090180546108c2906127b3565b80601f01602080910402602001604051908101604052809291908181526020018280546108ee906127b3565b801561093b5780601f106109105761010080835404028352916020019161093b565b820191906000526020600020905b81548152906001019060200180831161091e57829003601f168201915b5050505050815260200182600f01805480602002602001604051908101604052809291908181526020016000905b82821015610a15578382906000526020600020018054610988906127b3565b80601f01602080910402602001604051908101604052809291908181526020018280546109b4906127b3565b8015610a015780601f106109d657610100808354040283529160200191610a01565b820191906000526020600020905b8154815290600101906020018083116109e457829003601f168201915b505050505081526020019060010190610969565b50505050815260200182600e018054610a2d906127b3565b80601f0160208091040260200160405190810160405280929190818152602001828054610a59906127b3565b8015610aa65780601f10610a7b57610100808354040283529160200191610aa6565b820191906000526020600020905b815481529060010190602001808311610a8957829003601f168201915b50505050508152602001826010018054610abf906127b3565b80601f0160208091040260200160405190810160405280929190818152602001828054610aeb906127b3565b8015610b385780601f10610b0d57610100808354040283529160200191610b38565b820191906000526020600020905b815481529060010190602001808311610b1b57829003601f168201915b50505050508152509350604051806080016040528082600a018054610b5c906127b3565b80601f0160208091040260200160405190810160405280929190818152602001828054610b88906127b3565b8015610bd55780601f10610baa57610100808354040283529160200191610bd5565b820191906000526020600020905b815481529060010190602001808311610bb857829003601f168201915b5050505050815260200182600b018054610bee906127b3565b80601f0160208091040260200160405190810160405280929190818152602001828054610c1a906127b3565b8015610c675780601f10610c3c57610100808354040283529160200191610c67565b820191906000526020600020905b815481529060010190602001808311610c4a57829003601f168201915b5050505050815260200182600c018054610c80906127b3565b80601f0160208091040260200160405190810160405280929190818152602001828054610cac906127b3565b8015610cf95780601f10610cce57610100808354040283529160200191610cf9565b820191906000526020600020905b815481529060010190602001808311610cdc57829003601f168201915b5050505050815260200182600d018054610d12906127b3565b80601f0160208091040260200160405190810160405280929190818152602001828054610d3e906127b3565b8015610d8b5780601f10610d6057610100808354040283529160200191610d8b565b820191906000526020600020905b815481529060010190602001808311610d6e57829003601f168201915b50505050508152509250806013016040518060a00160405290816000820160009054906101000a900460ff161515151581526020016000820160019054906101000a900460ff161515151581526020016000820160029054906101000a900460ff161515151581526020016000820160039054906101000a900460ff161515151581526020016000820160049054906101000a900460ff1615151515815250509150509193509193565b6060600160008373ffffffffffffffffffffffffffffffffffffffff1673ffffffffffffffffffffffffffffffffffffffff1681526020019081526020016000208054610e81906127b3565b80601f0160208091040260200160405190810160405280929190818152602001828054610ead906127b3565b8015610efa5780601f10610ecf57610100808354040283529160200191610efa565b820191906000526020600020905b815481529060010190602001808311610edd57829003601f168201915b50505050509050919050565b600085604051610f169190612701565b908152602001604051809103902060110160009054906101000a900460ff16610f74576040517f08c379a0000000000000000000000000000000000000000000000000000000008152600401610f6b90612764565b60405180910390fd5b60008086604051610f859190612701565b908152602001604051809103902090508460000151816000019081610faa919061299a565b508460200151816001019081610fc0919061299a565b508460400151816002019081610fd6919061299a565b508460600151816003019081610fec919061299a565b508460800151816004019081611002919061299a565b508460c00151816005019081611018919061299a565b50836000015181600601908161102e919061299a565b508360200151816007019081611044919061299a565b508460a0015181600801908161105a919061299a565b508360400151816009019081611070919061299a565b50826000015181600a019081611086919061299a565b50826020015181600b01908161109c919061299a565b50826040015181600c0190816110b2919061299a565b50826060015181600d0190816110c8919061299a565b50836080015181600e0190816110de919061299a565b50836060015181600f0190805190602001906110fb929190611848565b508360a00151816010019081611111919061299a565b5060018160110160006101000a81548160ff021916908315150217905550818160130160008201518160000160006101000a81548160ff02191690831515021790555060208201518160000160016101000a81548160ff02191690831515021790555060408201518160000160026101000a81548160ff02191690831515021790555060608201518160000160036101000a81548160ff02191690831515021790555060808201518160000160046101000a81548160ff021916908315150217905550905050505050505050565b6111e76117ad565b6111ef6117ea565b6111f7611820565b6111ff611774565b6000600160008773ffffffffffffffffffffffffffffffffffffffff1673ffffffffffffffffffffffffffffffffffffffff168152602001908152602001600020805461124b906127b3565b80601f0160208091040260200160405190810160405280929190818152602001828054611277906127b3565b80156112c45780601f10611299576101008083540402835291602001916112c4565b820191906000526020600020905b8154815290600101906020018083116112a757829003601f168201915b505050505090506112d4816102cc565b9450945094509450509193509193565b846002816040516112f59190612701565b908152602001604051809103902060009054906101000a900460ff1615611351576040517f08c379a000000000000000000000000000000000000000000000000000000000815260040161134890612ab8565b60405180910390fd5b600080876040516113629190612701565b908152602001604051809103902090508560000151816000019081611387919061299a565b50856020015181600101908161139d919061299a565b5085604001518160020190816113b3919061299a565b5085606001518160030190816113c9919061299a565b5085608001518160040190816113df919061299a565b508560c001518160050190816113f5919061299a565b50846000015181600601908161140b919061299a565b508460200151816007019081611421919061299a565b508560a00151816008019081611437919061299a565b50846040015181600901908161144d919061299a565b50836000015181600a019081611463919061299a565b50836020015181600b019081611479919061299a565b50836040015181600c01908161148f919061299a565b50836060015181600d0190816114a5919061299a565b50846080015181600e0190816114bb919061299a565b50846060015181600f0190805190602001906114d8929190611848565b508460a001518160100190816114ee919061299a565b5060018160110160006101000a81548160ff021916908315150217905550828160130160008201518160000160006101000a81548160ff02191690831515021790555060208201518160000160016101000a81548160ff02191690831515021790555060408201518160000160026101000a81548160ff02191690831515021790555060608201518160000160036101000a81548160ff02191690831515021790555060808201518160000160046101000a81548160ff02191690831515021790555090505060016002886040516115c69190612701565b908152602001604051809103902060006101000a81548160ff02191690831515021790555086600160003373ffffffffffffffffffffffffffffffffffffffff1673ffffffffffffffffffffffffffffffffffffffff1681526020019081526020016000209081611637919061299a565b5050505050505050565b6000866040516116519190612701565b908152602001604051809103902060110160009054906101000a900460ff166116af576040517f08c379a00000000000000000000000000000000000000000000000000000000081526004016116a690612764565b60405180910390fd5b600080876040516116c09190612701565b90815260200160405180910390209050858160130160000160006101000a81548160ff021916908315150217905550848160130160000160016101000a81548160ff021916908315150217905550838160130160000160026101000a81548160ff021916908315150217905550828160130160000160036101000a81548160ff021916908315150217905550818160130160000160046101000a81548160ff02191690831515021790555050505050505050565b6040518060a001604052806000151581526020016000151581526020016000151581526020016000151581526020016000151581525090565b6040518060e00160405280606081526020016060815260200160608152602001606081526020016060815260200160608152602001606081525090565b6040518060c001604052806060815260200160608152602001606081526020016060815260200160608152602001606081525090565b6040518060800160405280606081526020016060815260200160608152602001606081525090565b828054828255906000526020600020908101928215611890579160200282015b8281111561188f57825182908161187f919061299a565b5091602001919060010190611868565b5b50905061189d91906118a1565b5090565b5b808211156118c157600081816118b891906118c5565b506001016118a2565b5090565b5080546118d1906127b3565b6000825580601f106118e35750611902565b601f0160209004906000526020600020908101906119019190611905565b5b50565b5b8082111561191e576000816000905550600101611906565b5090565b6000604051905090565b600080fd5b600080fd5b600080fd5b600080fd5b6000601f19601f8301169050919050565b7f4e487b7100000000000000000000000000000000000000000000000000000000600052604160045260246000fd5b61198982611940565b810181811067ffffffffffffffff821117156119a8576119a7611951565b5b80604052505050565b60006119bb611922565b90506119c78282611980565b919050565b600067ffffffffffffffff8211156119e7576119e6611951565b5b6119f082611940565b9050602081019050919050565b82818337600083830152505050565b6000611a1f611a1a846119cc565b6119b1565b905082815260208101848484011115611a3b57611a3a61193b565b5b611a468482856119fd565b509392505050565b600082601f830112611a6357611a62611936565b5b8135611a73848260208601611a0c565b91505092915050565b600060208284031215611a9257611a9161192c565b5b600082013567ffffffffffffffff811115611ab057611aaf611931565b5b611abc84828501611a4e565b91505092915050565b60008115159050919050565b611ada81611ac5565b82525050565b60a082016000820151611af66000850182611ad1565b506020820151611b096020850182611ad1565b506040820151611b1c6040850182611ad1565b506060820151611b2f6060850182611ad1565b506080820151611b426080850182611ad1565b50505050565b600060a082019050611b5d6000830184611ae0565b92915050565b600081519050919050565b600082825260208201905092915050565b60005b83811015611b9d578082015181840152602081019050611b82565b60008484015250505050565b6000611bb482611b63565b611bbe8185611b6e565b9350611bce818560208601611b7f565b611bd781611940565b840191505092915050565b600060e0830160008301518482036000860152611bff8282611ba9565b91505060208301518482036020860152611c198282611ba9565b91505060408301518482036040860152611c338282611ba9565b91505060608301518482036060860152611c4d8282611ba9565b91505060808301518482036080860152611c678282611ba9565b91505060a083015184820360a0860152611c818282611ba9565b91505060c083015184820360c0860152611c9b8282611ba9565b9150508091505092915050565b600081519050919050565b600082825260208201905092915050565b6000819050602082019050919050565b6000611ce08383611ba9565b905092915050565b6000602082019050919050565b6000611d0082611ca8565b611d0a8185611cb3565b935083602082028501611d1c85611cc4565b8060005b85811015611d585784840389528151611d398582611cd4565b9450611d4483611ce8565b925060208a01995050600181019050611d20565b50829750879550505050505092915050565b600060c0830160008301518482036000860152611d878282611ba9565b91505060208301518482036020860152611da18282611ba9565b91505060408301518482036040860152611dbb8282611ba9565b91505060608301518482036060860152611dd58282611cf5565b91505060808301518482036080860152611def8282611ba9565b91505060a083015184820360a0860152611e098282611ba9565b9150508091505092915050565b60006080830160008301518482036000860152611e338282611ba9565b91505060208301518482036020860152611e4d8282611ba9565b91505060408301518482036040860152611e678282611ba9565b91505060608301518482036060860152611e818282611ba9565b9150508091505092915050565b6000610100820190508181036000830152611ea98187611be2565b90508181036020830152611ebd8186611d6a565b90508181036040830152611ed18185611e16565b9050611ee06060830184611ae0565b95945050505050565b600073ffffffffffffffffffffffffffffffffffffffff82169050919050565b6000611f1482611ee9565b9050919050565b611f2481611f09565b8114611f2f57600080fd5b50565b600081359050611f4181611f1b565b92915050565b600060208284031215611f5d57611f5c61192c565b5b6000611f6b84828501611f32565b91505092915050565b600082825260208201905092915050565b6000611f9082611b63565b611f9a8185611f74565b9350611faa818560208601611b7f565b611fb381611940565b840191505092915050565b60006020820190508181036000830152611fd88184611f85565b905092915050565b600080fd5b600080fd5b600060e0828403121561200057611fff611fe0565b5b61200a60e06119b1565b9050600082013567ffffffffffffffff81111561202a57612029611fe5565b5b61203684828501611a4e565b600083015250602082013567ffffffffffffffff81111561205a57612059611fe5565b5b61206684828501611a4e565b602083015250604082013567ffffffffffffffff81111561208a57612089611fe5565b5b61209684828501611a4e565b604083015250606082013567ffffffffffffffff8111156120ba576120b9611fe5565b5b6120c684828501611a4e565b606083015250608082013567ffffffffffffffff8111156120ea576120e9611fe5565b5b6120f684828501611a4e565b60808301525060a082013567ffffffffffffffff81111561211a57612119611fe5565b5b61212684828501611a4e565b60a08301525060c082013567ffffffffffffffff81111561214a57612149611fe5565b5b61215684828501611a4e565b60c08301525092915050565b600067ffffffffffffffff82111561217d5761217c611951565b5b602082029050602081019050919050565b600080fd5b60006121a66121a184612162565b6119b1565b905080838252602082019050602084028301858111156121c9576121c861218e565b5b835b8181101561221057803567ffffffffffffffff8111156121ee576121ed611936565b5b8086016121fb8982611a4e565b855260208501945050506020810190506121cb565b5050509392505050565b600082601f83011261222f5761222e611936565b5b813561223f848260208601612193565b91505092915050565b600060c0828403121561225e5761225d611fe0565b5b61226860c06119b1565b9050600082013567ffffffffffffffff81111561228857612287611fe5565b5b61229484828501611a4e565b600083015250602082013567ffffffffffffffff8111156122b8576122b7611fe5565b5b6122c484828501611a4e565b602083015250604082013567ffffffffffffffff8111156122e8576122e7611fe5565b5b6122f484828501611a4e565b604083015250606082013567ffffffffffffffff81111561231857612317611fe5565b5b6123248482850161221a565b606083015250608082013567ffffffffffffffff81111561234857612347611fe5565b5b61235484828501611a4e565b60808301525060a082013567ffffffffffffffff81111561237857612377611fe5565b5b61238484828501611a4e565b60a08301525092915050565b6000608082840312156123a6576123a5611fe0565b5b6123b060806119b1565b9050600082013567ffffffffffffffff8111156123d0576123cf611fe5565b5b6123dc84828501611a4e565b600083015250602082013567ffffffffffffffff811115612400576123ff611fe5565b5b61240c84828501611a4e565b602083015250604082013567ffffffffffffffff8111156124305761242f611fe5565b5b61243c84828501611a4e565b604083015250606082013567ffffffffffffffff8111156124605761245f611fe5565b5b61246c84828501611a4e565b60608301525092915050565b61248181611ac5565b811461248c57600080fd5b50565b60008135905061249e81612478565b92915050565b600060a082840312156124ba576124b9611fe0565b5b6124c460a06119b1565b905060006124d48482850161248f565b60008301525060206124e88482850161248f565b60208301525060406124fc8482850161248f565b60408301525060606125108482850161248f565b60608301525060806125248482850161248f565b60808301525092915050565b6000806000806000610120868803121561254d5761254c61192c565b5b600086013567ffffffffffffffff81111561256b5761256a611931565b5b61257788828901611a4e565b955050602086013567ffffffffffffffff81111561259857612597611931565b5b6125a488828901611fea565b945050604086013567ffffffffffffffff8111156125c5576125c4611931565b5b6125d188828901612248565b935050606086013567ffffffffffffffff8111156125f2576125f1611931565b5b6125fe88828901612390565b925050608061260f888289016124a4565b9150509295509295909350565b60008060008060008060c087890312156126395761263861192c565b5b600087013567ffffffffffffffff81111561265757612656611931565b5b61266389828a01611a4e565b965050602061267489828a0161248f565b955050604061268589828a0161248f565b945050606061269689828a0161248f565b93505060806126a789828a0161248f565b92505060a06126b889828a0161248f565b9150509295509295509295565b600081905092915050565b60006126db82611b63565b6126e581856126c5565b93506126f5818560208601611b7f565b80840191505092915050565b600061270d82846126d0565b915081905092915050565b7f5573657220646f6573206e6f7420657869737400000000000000000000000000600082015250565b600061274e601383611f74565b915061275982612718565b602082019050919050565b6000602082019050818103600083015261277d81612741565b9050919050565b7f4e487b7100000000000000000000000000000000000000000000000000000000600052602260045260246000fd5b600060028204905060018216806127cb57607f821691505b6020821081036127de576127dd612784565b5b50919050565b60008190508160005260206000209050919050565b60006020601f8301049050919050565b600082821b905092915050565b6000600883026128467fffffffffffffffffffffffffffffffffffffffffffffffffffffffffffffffff82612809565b6128508683612809565b95508019841693508086168417925050509392505050565b6000819050919050565b6000819050919050565b600061289761289261288d84612868565b612872565b612868565b9050919050565b6000819050919050565b6128b18361287c565b6128c56128bd8261289e565b848454612816565b825550505050565b600090565b6128da6128cd565b6128e58184846128a8565b505050565b5b81811015612909576128fe6000826128d2565b6001810190506128eb565b5050565b601f82111561294e5761291f816127e4565b612928846127f9565b81016020851015612937578190505b61294b612943856127f9565b8301826128ea565b50505b505050565b600082821c905092915050565b600061297160001984600802612953565b1980831691505092915050565b600061298a8383612960565b9150826002028217905092915050565b6129a382611b63565b67ffffffffffffffff8111156129bc576129bb611951565b5b6129c682546127b3565b6129d182828561290d565b600060209050601f831160018114612a0457600084156129f2578287015190505b6129fc858261297e565b865550612a64565b601f198416612a12866127e4565b60005b82811015612a3a57848901518255600182019150602085019450602081019050612a15565b86831015612a575784890151612a53601f891682612960565b8355505b6001600288020188555050505b505050505050565b7f557365726e616d6520616c726561647920657869737473000000000000000000600082015250565b6000612aa2601783611f74565b9150612aad82612a6c565b602082019050919050565b60006020820190508181036000830152612ad181612a95565b905091905056fea2646970667358221220188b59fdfb47406d7c5cf018d86a1a4e01a0a96282201d9f2b64024a489c8c4164736f6c634300081c0033",
  "linkReferences": {},
  "deployedLinkReferences": {}
}